{
  "address": "0xCaD269fB3dC045Db12Ce4c7B9501567175878410",
  "abi": [
    {
      "anonymous": false,
      "inputs": [
        {
          "indexed": false,
          "internalType": "uint256",
          "name": "eventId",
          "type": "uint256"
        }
      ],
      "name": "EventCancelled",
      "type": "event"
    },
    {
      "anonymous": false,
      "inputs": [
        {
          "indexed": false,
          "internalType": "uint256",
          "name": "eventId",
          "type": "uint256"
        },
        {
          "indexed": false,
          "internalType": "string",
          "name": "name",
          "type": "string"
        },
        {
          "indexed": false,
          "internalType": "string",
          "name": "description",
          "type": "string"
        },
        {
          "indexed": false,
          "internalType": "string",
          "name": "location",
          "type": "string"
        },
        {
          "indexed": false,
          "internalType": "uint256",
          "name": "time",
          "type": "uint256"
        },
        {
          "indexed": false,
          "internalType": "address",
          "name": "organizer",
          "type": "address"
        }
      ],
      "name": "EventCreated",
      "type": "event"
    },
    {
      "anonymous": false,
      "inputs": [
        {
          "indexed": false,
          "internalType": "address",
          "name": "holder",
          "type": "address"
        },
        {
          "indexed": false,
          "internalType": "uint256",
          "name": "eventId",
          "type": "uint256"
        },
        {
          "indexed": false,
          "internalType": "string",
          "name": "ticketType",
          "type": "string"
        },
        {
          "indexed": false,
          "internalType": "uint256",
          "name": "quantity",
          "type": "uint256"
        }
      ],
      "name": "TicketCancelled",
      "type": "event"
    },
    {
      "anonymous": false,
      "inputs": [
        {
          "indexed": false,
          "internalType": "address",
          "name": "buyer",
          "type": "address"
        },
        {
          "indexed": false,
          "internalType": "uint256",
          "name": "eventId",
          "type": "uint256"
        },
        {
          "indexed": false,
          "internalType": "string",
          "name": "ticketType",
          "type": "string"
        },
        {
          "indexed": false,
          "internalType": "uint256",
          "name": "quantity",
          "type": "uint256"
        }
      ],
      "name": "TicketPurchased",
      "type": "event"
    },
    {
      "anonymous": false,
      "inputs": [
        {
          "indexed": false,
          "internalType": "uint256",
          "name": "eventId",
          "type": "uint256"
        },
        {
          "indexed": false,
          "internalType": "string",
          "name": "ticketType",
          "type": "string"
        },
        {
          "indexed": false,
          "internalType": "uint256",
          "name": "price",
          "type": "uint256"
        },
        {
          "indexed": false,
          "internalType": "uint256",
          "name": "quantity",
          "type": "uint256"
        }
      ],
      "name": "TicketTypeAdded",
      "type": "event"
    },
    {
      "inputs": [
        {
          "internalType": "uint256",
          "name": "eventId",
          "type": "uint256"
        },
        {
          "internalType": "string",
          "name": "ticketType",
          "type": "string"
        },
        {
          "internalType": "uint256",
          "name": "price",
          "type": "uint256"
        },
        {
          "internalType": "uint256",
          "name": "quantity",
          "type": "uint256"
        }
      ],
      "name": "addTicketType",
      "outputs": [],
      "stateMutability": "nonpayable",
      "type": "function"
    },
    {
      "inputs": [
        {
          "internalType": "uint256",
          "name": "eventId",
          "type": "uint256"
        },
        {
          "internalType": "string",
          "name": "ticketType",
          "type": "string"
        },
        {
          "internalType": "uint256",
          "name": "quantity",
          "type": "uint256"
        }
      ],
      "name": "buyTicket",
      "outputs": [],
      "stateMutability": "payable",
      "type": "function"
    },
    {
      "inputs": [
        {
          "internalType": "uint256",
          "name": "eventId",
          "type": "uint256"
        }
      ],
      "name": "cancelEvent",
      "outputs": [],
      "stateMutability": "nonpayable",
      "type": "function"
    },
    {
      "inputs": [
        {
          "internalType": "uint256",
          "name": "eventId",
          "type": "uint256"
        },
        {
          "internalType": "string",
          "name": "ticketType",
          "type": "string"
        },
        {
          "internalType": "uint256",
          "name": "quantity",
          "type": "uint256"
        }
      ],
      "name": "cancelTicket",
      "outputs": [],
      "stateMutability": "nonpayable",
      "type": "function"
    },
    {
      "inputs": [
        {
          "internalType": "string",
          "name": "name",
          "type": "string"
        },
        {
          "internalType": "string",
          "name": "description",
          "type": "string"
        },
        {
          "internalType": "string",
          "name": "location",
          "type": "string"
        },
        {
          "internalType": "uint256",
          "name": "time",
          "type": "uint256"
        }
      ],
      "name": "createEvent",
      "outputs": [],
      "stateMutability": "nonpayable",
      "type": "function"
    },
    {
      "inputs": [
        {
          "internalType": "uint256",
          "name": "",
          "type": "uint256"
        }
      ],
      "name": "events",
      "outputs": [
        {
          "internalType": "string",
          "name": "name",
          "type": "string"
        },
        {
          "internalType": "string",
          "name": "description",
          "type": "string"
        },
        {
          "internalType": "string",
          "name": "location",
          "type": "string"
        },
        {
          "internalType": "uint256",
          "name": "time",
          "type": "uint256"
        },
        {
          "internalType": "bool",
          "name": "isCancelled",
          "type": "bool"
        },
        {
          "internalType": "address",
          "name": "organizer",
          "type": "address"
        }
      ],
      "stateMutability": "view",
      "type": "function"
    },
    {
      "inputs": [
        {
          "internalType": "uint256",
          "name": "eventId",
          "type": "uint256"
        }
      ],
      "name": "getEventTicketDetails",
      "outputs": [
        {
          "internalType": "string[]",
          "name": "",
          "type": "string[]"
        },
        {
          "internalType": "uint256[]",
          "name": "",
          "type": "uint256[]"
        },
        {
          "internalType": "uint256[]",
          "name": "",
          "type": "uint256[]"
        },
        {
          "internalType": "uint256[]",
          "name": "",
          "type": "uint256[]"
        }
      ],
      "stateMutability": "view",
      "type": "function"
    },
    {
      "inputs": [
        {
          "internalType": "address",
          "name": "organizer",
          "type": "address"
        }
      ],
      "name": "getOrganizerEvents",
      "outputs": [
        {
          "internalType": "uint256[]",
          "name": "",
          "type": "uint256[]"
        }
      ],
      "stateMutability": "view",
      "type": "function"
    },
    {
      "inputs": [
        {
          "internalType": "address",
          "name": "",
          "type": "address"
        },
        {
          "internalType": "uint256",
          "name": "",
          "type": "uint256"
        },
        {
          "internalType": "string",
          "name": "",
          "type": "string"
        }
      ],
      "name": "ticketOwnership",
      "outputs": [
        {
          "internalType": "uint256",
          "name": "",
          "type": "uint256"
        }
      ],
      "stateMutability": "view",
      "type": "function"
    },
    {
      "inputs": [
        {
          "internalType": "uint256",
          "name": "",
          "type": "uint256"
        },
        {
          "internalType": "string",
          "name": "",
          "type": "string"
        }
      ],
      "name": "ticketTypes",
      "outputs": [
        {
          "internalType": "uint256",
          "name": "price",
          "type": "uint256"
        },
        {
          "internalType": "uint256",
          "name": "totalQuantity",
          "type": "uint256"
        },
        {
          "internalType": "uint256",
          "name": "availableQuantity",
          "type": "uint256"
        }
      ],
      "stateMutability": "view",
      "type": "function"
    }
  ],
  "transactionHash": "0x56b8eb44f9f7dd8a8100a643ea1a9bb7d580f6b044f59f684b55b7b80a112cfb",
  "args": [],
  "numDeployments": 1,
  "solcInputHash": "1d41f8792fc25bbdee3dc3632511c3ca",
  "bytecode": "0x608060405234801561001057600080fd5b5060016000556118d7806100256000396000f3fe6080604052600436106100915760003560e01c80634eb746ad116100595780634eb746ad146101565780638dfa5983146101b7578063de4cd842146101d7578063e5257355146101f7578063ff9f59701461026857600080fd5b80630b79143014610096578063124a51e9146100d15780632e019e4b146101015780633f69babd146101165780634653db1614610136575b600080fd5b3480156100a257600080fd5b506100b66100b1366004611101565b610295565b6040516100c89695949392919061116a565b60405180910390f35b3480156100dd57600080fd5b506100f16100ec366004611101565b61046e565b6040516100c89493929190611206565b61011461010f366004611349565b610766565b005b34801561012257600080fd5b50610114610131366004611101565b6109a8565b34801561014257600080fd5b50610114610151366004611399565b610ad9565b34801561016257600080fd5b506101a961017136600461140c565b600460209081526000938452604080852082529284529190922082518084018301805192815290830193909201929092209190525481565b6040519081526020016100c8565b3480156101c357600080fd5b506101146101d2366004611349565b610cd0565b3480156101e357600080fd5b506101146101f2366004611463565b610e92565b34801561020357600080fd5b5061024d6102123660046114f3565b600260208181526000938452604090932082518084018501805192815290850193909401929092209190925280546001820154919092015483565b604080519384526020840192909252908201526060016100c8565b34801561027457600080fd5b5061028861028336600461153a565b61103c565b6040516100c8919061155c565b6001602052600090815260409020805481906102b09061156f565b80601f01602080910402602001604051908101604052809291908181526020018280546102dc9061156f565b80156103295780601f106102fe57610100808354040283529160200191610329565b820191906000526020600020905b81548152906001019060200180831161030c57829003601f168201915b50505050509080600101805461033e9061156f565b80601f016020809104026020016040519081016040528092919081815260200182805461036a9061156f565b80156103b75780601f1061038c576101008083540402835291602001916103b7565b820191906000526020600020905b81548152906001019060200180831161039a57829003601f168201915b5050505050908060020180546103cc9061156f565b80601f01602080910402602001604051908101604052809291908181526020018280546103f89061156f565b80156104455780601f1061041a57610100808354040283529160200191610445565b820191906000526020600020905b81548152906001019060200180831161042857829003601f168201915b50505050600383015460049093015491929160ff8116915061010090046001600160a01b031686565b6060806060808460006001600083815260200190815260200160002060000180546104989061156f565b9050116104c05760405162461bcd60e51b81526004016104b7906115a9565b60405180910390fd5b600086815260056020908152604080832080548251818502810185019093528083529192909190849084015b8282101561059857838290600052602060002001805461050b9061156f565b80601f01602080910402602001604051908101604052809291908181526020018280546105379061156f565b80156105845780601f1061055957610100808354040283529160200191610584565b820191906000526020600020905b81548152906001019060200180831161056757829003601f168201915b5050505050815260200190600101906104ec565b50505050905060008151905060008167ffffffffffffffff8111156105bf576105bf6112a6565b6040519080825280602002602001820160405280156105e8578160200160208202803683370190505b50905060008267ffffffffffffffff811115610606576106066112a6565b60405190808252806020026020018201604052801561062f578160200160208202803683370190505b50905060008367ffffffffffffffff81111561064d5761064d6112a6565b604051908082528060200260200182016040528015610676578160200160208202803683370190505b50905060005b84811015610753576000868281518110610698576106986115e0565b602002602001015190506000600260008f8152602001908152602001600020826040516106c591906115f6565b9081526020016040518091039020905080600001548684815181106106ec576106ec6115e0565b602002602001018181525050806001015485848151811061070f5761070f6115e0565b6020026020010181815250508060020154848481518110610732576107326115e0565b6020026020010181815250505050808061074b90611628565b91505061067c565b50939a9199509750919550909350505050565b600083815260016020526040902060040154839060ff16156107c45760405162461bcd60e51b81526020600482015260176024820152762a34329032bb32b73a1034b99031b0b731b2b63632b21760491b60448201526064016104b7565b60008481526001602052604081208054869291906107e19061156f565b9050116108005760405162461bcd60e51b81526004016104b7906115a9565b6108086110a8565b60008581526002602052604080822090516108249087906115f6565b90815260200160405180910390209050600084118015610848575080600201548411155b6108945760405162461bcd60e51b815260206004820152601d60248201527f4e6f7420656e6f756768207469636b65747320617661696c61626c652e00000060448201526064016104b7565b80546108a1908590611641565b34146108ef5760405162461bcd60e51b815260206004820152601f60248201527f496e636f727265637420616d6f756e74206f662065746865722073656e742e0060448201526064016104b7565b33600090815260046020908152604080832089845290915290819020905185919061091b9088906115f6565b90815260200160405180910390206000828254610938919061165e565b92505081905550838160020160008282546109539190611671565b90915550506040517f10975240183144ceba20e3ae815c79a9732411a60efbf4dac13c2522d527e2be9061098e903390899089908990611684565b60405180910390a1506109a16001600055565b5050505050565b600081815260016020526040902060040154819061010090046001600160a01b031633146109e85760405162461bcd60e51b81526004016104b7906116bc565b600082815260016020526040902060040154829060ff1615610a465760405162461bcd60e51b81526020600482015260176024820152762a34329032bb32b73a1034b99031b0b731b2b63632b21760491b60448201526064016104b7565b6000838152600160205260408120805485929190610a639061156f565b905011610a825760405162461bcd60e51b81526004016104b7906115a9565b600084815260016020818152604092839020600401805460ff191690921790915590518581527fdc3cb569b066460f4a22dffa05317bdcce5d3826382ed49a21f13e5fa2063d39910160405180910390a150505050565b600084815260016020526040902060040154849061010090046001600160a01b03163314610b195760405162461bcd60e51b81526004016104b7906116bc565b6000858152600160205260408120805487929190610b369061156f565b905011610b555760405162461bcd60e51b81526004016104b7906115a9565b60008411610ba55760405162461bcd60e51b815260206004820181905260248201527f5072696365206d7573742062652067726561746572207468616e207a65726f2e60448201526064016104b7565b60008311610c015760405162461bcd60e51b815260206004820152602360248201527f5175616e74697479206d7573742062652067726561746572207468616e207a6560448201526239379760e91b60648201526084016104b7565b6040518060600160405280858152602001848152602001848152506002600088815260200190815260200160002086604051610c3d91906115f6565b90815260408051602092819003830190208351815583830151600180830191909155938201516002909101556000898152600583529081208054938401815581522001610c8a8682611752565b507f2b08bfd52686de630a681d7f6ac34680e4a9c65a6777b964543a51b79c80e79586868686604051610cc09493929190611812565b60405180910390a1505050505050565b610cd86110a8565b336000908152600460209081526040808320868452909152908190209051829190610d049085906115f6565b9081526020016040518091039020541015610d725760405162461bcd60e51b815260206004820152602860248201527f596f7520646f206e6f74206f776e20656e6f756768207469636b65747320746f6044820152671031b0b731b2b61760c11b60648201526084016104b7565b6000838152600260205260408082209051610d8e9085906115f6565b908152604080519182900360209081018320336000908152600483528381208982529092529190209092508391610dc69086906115f6565b90815260200160405180910390206000828254610de39190611671565b9250508190555081816002016000828254610dfe919061165e565b90915550508054600090610e13908490611641565b604051909150339082156108fc029083906000818181858888f19350505050158015610e43573d6000803e3d6000fd5b507feff335da5ec625f144ec4789cbf4d820573972a838bfb9289a304701b934d2cc33868686604051610e799493929190611684565b60405180910390a15050610e8d6001600055565b505050565b428111610eeb5760405162461bcd60e51b815260206004820152602160248201527f4576656e742074696d65206d75737420626520696e20746865206675747572656044820152601760f91b60648201526084016104b7565b6006805460009182610efc83611628565b909155506040805160c0810182528781526020808201889052818301879052606082018690526000608083018190523360a0840152848152600190915291909120815192935090918190610f509082611752565b5060208201516001820190610f659082611752565b5060408201516002820190610f7a9082611752565b50606082015160038083019190915560808301516004909201805460a0909401516001600160a01b031661010002610100600160a81b0319931515939093166001600160a81b031990941693909317919091179091553360008181526020928352604080822080546001810182559083529390912090920183905590517f3db395b2bb3fe50edee153dd9be8273e84ad0a99543452b6cfc5dfd36f46e7629161102d91849189918991899189919061183e565b60405180910390a15050505050565b6001600160a01b03811660009081526003602090815260409182902080548351818402810184019094528084526060939283018282801561109c57602002820191906000526020600020905b815481526020019060010190808311611088575b50505050509050919050565b6002600054036110fa5760405162461bcd60e51b815260206004820152601f60248201527f5265656e7472616e637947756172643a207265656e7472616e742063616c6c0060448201526064016104b7565b6002600055565b60006020828403121561111357600080fd5b5035919050565b60005b8381101561113557818101518382015260200161111d565b50506000910152565b6000815180845261115681602086016020860161111a565b601f01601f19169290920160200192915050565b60c08152600061117d60c083018961113e565b828103602084015261118f818961113e565b905082810360408401526111a3818861113e565b6060840196909652505091151560808301526001600160a01b031660a0909101529392505050565b600081518084526020808501945080840160005b838110156111fb578151875295820195908201906001016111df565b509495945050505050565b6000608082016080835280875180835260a08501915060a08160051b86010192506020808a0160005b8381101561125d57609f1988870301855261124b86835161113e565b9550938201939082019060010161122f565b50508584038187015250505061127381876111cb565b9050828103604084015261128781866111cb565b9050828103606084015261129b81856111cb565b979650505050505050565b634e487b7160e01b600052604160045260246000fd5b600082601f8301126112cd57600080fd5b813567ffffffffffffffff808211156112e8576112e86112a6565b604051601f8301601f19908116603f01168101908282118183101715611310576113106112a6565b8160405283815286602085880101111561132957600080fd5b836020870160208301376000602085830101528094505050505092915050565b60008060006060848603121561135e57600080fd5b83359250602084013567ffffffffffffffff81111561137c57600080fd5b611388868287016112bc565b925050604084013590509250925092565b600080600080608085870312156113af57600080fd5b84359350602085013567ffffffffffffffff8111156113cd57600080fd5b6113d9878288016112bc565b949794965050505060408301359260600135919050565b80356001600160a01b038116811461140757600080fd5b919050565b60008060006060848603121561142157600080fd5b61142a846113f0565b925060208401359150604084013567ffffffffffffffff81111561144d57600080fd5b611459868287016112bc565b9150509250925092565b6000806000806080858703121561147957600080fd5b843567ffffffffffffffff8082111561149157600080fd5b61149d888389016112bc565b955060208701359150808211156114b357600080fd5b6114bf888389016112bc565b945060408701359150808211156114d557600080fd5b506114e2878288016112bc565b949793965093946060013593505050565b6000806040838503121561150657600080fd5b82359150602083013567ffffffffffffffff81111561152457600080fd5b611530858286016112bc565b9150509250929050565b60006020828403121561154c57600080fd5b611555826113f0565b9392505050565b60208152600061155560208301846111cb565b600181811c9082168061158357607f821691505b6020821081036115a357634e487b7160e01b600052602260045260246000fd5b50919050565b60208082526019908201527f546865206576656e7420646f6573206e6f742065786973742e00000000000000604082015260600190565b634e487b7160e01b600052603260045260246000fd5b6000825161160881846020870161111a565b9190910192915050565b634e487b7160e01b600052601160045260246000fd5b60006001820161163a5761163a611612565b5060010190565b808202811582820484141761165857611658611612565b92915050565b8082018082111561165857611658611612565b8181038181111561165857611658611612565b60018060a01b03851681528360208201526080604082015260006116ab608083018561113e565b905082606083015295945050505050565b60208082526028908201527f596f7520617265206e6f7420746865206f7267616e697a6572206f6620746869604082015267399032bb32b73a1760c11b606082015260800190565b601f821115610e8d57600081815260208120601f850160051c8101602086101561172b5750805b601f850160051c820191505b8181101561174a57828155600101611737565b505050505050565b815167ffffffffffffffff81111561176c5761176c6112a6565b6117808161177a845461156f565b84611704565b602080601f8311600181146117b5576000841561179d5750858301515b600019600386901b1c1916600185901b17855561174a565b600085815260208120601f198616915b828110156117e4578886015182559484019460019091019084016117c5565b50858210156118025787850151600019600388901b60f8161c191681555b5050505050600190811b01905550565b84815260806020820152600061182b608083018661113e565b6040830194909452506060015292915050565b86815260c06020820152600061185760c083018861113e565b8281036040840152611869818861113e565b9050828103606084015261187d818761113e565b608084019590955250506001600160a01b039190911660a09091015294935050505056fea264697066735822122099003741c2e9d9f3b68a0ea2a90b08200ca14307d48f8ddeea31e93e546bef1464736f6c63430008110033",
  "devdoc": {
    "author": "Kaviraj",
    "kind": "dev",
    "methods": {},
    "version": 1
  },
  "userdoc": {
    "kind": "user",
    "methods": {},
    "notice": "This contract is a event managing contract",
    "version": 1
  },
  "storageLayout": {
    "storage": [
      {
        "astId": 10,
        "contract": "contracts/EventManager.sol:EventManager",
        "label": "_status",
        "offset": 0,
        "slot": "0",
        "type": "t_uint256"
      },
      {
        "astId": 96,
        "contract": "contracts/EventManager.sol:EventManager",
        "label": "events",
        "offset": 0,
        "slot": "1",
        "type": "t_mapping(t_uint256,t_struct(Event)91_storage)"
      },
      {
        "astId": 103,
        "contract": "contracts/EventManager.sol:EventManager",
        "label": "ticketTypes",
        "offset": 0,
        "slot": "2",
        "type": "t_mapping(t_uint256,t_mapping(t_string_memory_ptr,t_struct(TicketType)78_storage))"
      },
      {
        "astId": 108,
        "contract": "contracts/EventManager.sol:EventManager",
        "label": "organizerEvents",
        "offset": 0,
        "slot": "3",
        "type": "t_mapping(t_address,t_array(t_uint256)dyn_storage)"
      },
      {
        "astId": 116,
        "contract": "contracts/EventManager.sol:EventManager",
        "label": "ticketOwnership",
        "offset": 0,
        "slot": "4",
        "type": "t_mapping(t_address,t_mapping(t_uint256,t_mapping(t_string_memory_ptr,t_uint256)))"
      },
      {
        "astId": 121,
        "contract": "contracts/EventManager.sol:EventManager",
        "label": "eventTicketTypes",
        "offset": 0,
        "slot": "5",
        "type": "t_mapping(t_uint256,t_array(t_string_storage)dyn_storage)"
      },
      {
        "astId": 123,
        "contract": "contracts/EventManager.sol:EventManager",
        "label": "nextEventId",
        "offset": 0,
        "slot": "6",
        "type": "t_uint256"
      }
    ],
    "types": {
      "t_address": {
        "encoding": "inplace",
        "label": "address",
        "numberOfBytes": "20"
      },
      "t_array(t_string_storage)dyn_storage": {
        "base": "t_string_storage",
        "encoding": "dynamic_array",
        "label": "string[]",
        "numberOfBytes": "32"
      },
      "t_array(t_uint256)dyn_storage": {
        "base": "t_uint256",
        "encoding": "dynamic_array",
        "label": "uint256[]",
        "numberOfBytes": "32"
      },
      "t_bool": {
        "encoding": "inplace",
        "label": "bool",
        "numberOfBytes": "1"
      },
      "t_mapping(t_address,t_array(t_uint256)dyn_storage)": {
        "encoding": "mapping",
        "key": "t_address",
        "label": "mapping(address => uint256[])",
        "numberOfBytes": "32",
        "value": "t_array(t_uint256)dyn_storage"
      },
      "t_mapping(t_address,t_mapping(t_uint256,t_mapping(t_string_memory_ptr,t_uint256)))": {
        "encoding": "mapping",
        "key": "t_address",
        "label": "mapping(address => mapping(uint256 => mapping(string => uint256)))",
        "numberOfBytes": "32",
        "value": "t_mapping(t_uint256,t_mapping(t_string_memory_ptr,t_uint256))"
      },
      "t_mapping(t_string_memory_ptr,t_struct(TicketType)78_storage)": {
        "encoding": "mapping",
        "key": "t_string_memory_ptr",
        "label": "mapping(string => struct EventManager.TicketType)",
        "numberOfBytes": "32",
        "value": "t_struct(TicketType)78_storage"
      },
      "t_mapping(t_string_memory_ptr,t_uint256)": {
        "encoding": "mapping",
        "key": "t_string_memory_ptr",
        "label": "mapping(string => uint256)",
        "numberOfBytes": "32",
        "value": "t_uint256"
      },
      "t_mapping(t_uint256,t_array(t_string_storage)dyn_storage)": {
        "encoding": "mapping",
        "key": "t_uint256",
        "label": "mapping(uint256 => string[])",
        "numberOfBytes": "32",
        "value": "t_array(t_string_storage)dyn_storage"
      },
      "t_mapping(t_uint256,t_mapping(t_string_memory_ptr,t_struct(TicketType)78_storage))": {
        "encoding": "mapping",
        "key": "t_uint256",
        "label": "mapping(uint256 => mapping(string => struct EventManager.TicketType))",
        "numberOfBytes": "32",
        "value": "t_mapping(t_string_memory_ptr,t_struct(TicketType)78_storage)"
      },
      "t_mapping(t_uint256,t_mapping(t_string_memory_ptr,t_uint256))": {
        "encoding": "mapping",
        "key": "t_uint256",
        "label": "mapping(uint256 => mapping(string => uint256))",
        "numberOfBytes": "32",
        "value": "t_mapping(t_string_memory_ptr,t_uint256)"
      },
      "t_mapping(t_uint256,t_struct(Event)91_storage)": {
        "encoding": "mapping",
        "key": "t_uint256",
        "label": "mapping(uint256 => struct EventManager.Event)",
        "numberOfBytes": "32",
        "value": "t_struct(Event)91_storage"
      },
      "t_string_memory_ptr": {
        "encoding": "bytes",
        "label": "string",
        "numberOfBytes": "32"
      },
      "t_string_storage": {
        "encoding": "bytes",
        "label": "string",
        "numberOfBytes": "32"
      },
      "t_struct(Event)91_storage": {
        "encoding": "inplace",
        "label": "struct EventManager.Event",
        "members": [
          {
            "astId": 80,
            "contract": "contracts/EventManager.sol:EventManager",
            "label": "name",
            "offset": 0,
            "slot": "0",
            "type": "t_string_storage"
          },
          {
            "astId": 82,
            "contract": "contracts/EventManager.sol:EventManager",
            "label": "description",
            "offset": 0,
            "slot": "1",
            "type": "t_string_storage"
          },
          {
            "astId": 84,
            "contract": "contracts/EventManager.sol:EventManager",
            "label": "location",
            "offset": 0,
            "slot": "2",
            "type": "t_string_storage"
          },
          {
            "astId": 86,
            "contract": "contracts/EventManager.sol:EventManager",
            "label": "time",
            "offset": 0,
            "slot": "3",
            "type": "t_uint256"
          },
          {
            "astId": 88,
            "contract": "contracts/EventManager.sol:EventManager",
            "label": "isCancelled",
            "offset": 0,
            "slot": "4",
            "type": "t_bool"
          },
          {
            "astId": 90,
            "contract": "contracts/EventManager.sol:EventManager",
            "label": "organizer",
            "offset": 1,
            "slot": "4",
            "type": "t_address"
          }
        ],
        "numberOfBytes": "160"
      },
      "t_struct(TicketType)78_storage": {
        "encoding": "inplace",
        "label": "struct EventManager.TicketType",
        "members": [
          {
            "astId": 73,
            "contract": "contracts/EventManager.sol:EventManager",
            "label": "price",
            "offset": 0,
            "slot": "0",
            "type": "t_uint256"
          },
          {
            "astId": 75,
            "contract": "contracts/EventManager.sol:EventManager",
            "label": "totalQuantity",
            "offset": 0,
            "slot": "1",
            "type": "t_uint256"
          },
          {
            "astId": 77,
            "contract": "contracts/EventManager.sol:EventManager",
            "label": "availableQuantity",
            "offset": 0,
            "slot": "2",
            "type": "t_uint256"
          }
        ],
        "numberOfBytes": "96"
      },
      "t_uint256": {
        "encoding": "inplace",
        "label": "uint256",
        "numberOfBytes": "32"
      }
    }
  }
}