{
  "address": "0xd59522Cc14A3D97a9A8a7Ca284c916ce92473d3C",
  "abi": [
    {
      "anonymous": false,
      "inputs": [
        {
          "indexed": true,
          "internalType": "uint256",
          "name": "eventId",
          "type": "uint256"
        }
      ],
      "name": "EventCancelled",
      "type": "event"
    },
    {
      "anonymous": false,
      "inputs": [
        {
          "indexed": true,
          "internalType": "uint256",
          "name": "eventId",
          "type": "uint256"
        },
        {
          "indexed": false,
          "internalType": "string",
          "name": "name",
          "type": "string"
        },
        {
          "indexed": false,
          "internalType": "string",
          "name": "description",
          "type": "string"
        },
        {
          "indexed": false,
          "internalType": "string",
          "name": "location",
          "type": "string"
        },
        {
          "indexed": false,
          "internalType": "uint256",
          "name": "time",
          "type": "uint256"
        },
        {
          "indexed": false,
          "internalType": "address",
          "name": "organizer",
          "type": "address"
        }
      ],
      "name": "EventCreated",
      "type": "event"
    },
    {
      "anonymous": false,
      "inputs": [
        {
          "indexed": true,
          "internalType": "address",
          "name": "holder",
          "type": "address"
        },
        {
          "indexed": true,
          "internalType": "uint256",
          "name": "eventId",
          "type": "uint256"
        },
        {
          "indexed": false,
          "internalType": "string",
          "name": "ticketType",
          "type": "string"
        },
        {
          "indexed": false,
          "internalType": "uint256",
          "name": "quantity",
          "type": "uint256"
        }
      ],
      "name": "TicketCancelled",
      "type": "event"
    },
    {
      "anonymous": false,
      "inputs": [
        {
          "indexed": true,
          "internalType": "address",
          "name": "buyer",
          "type": "address"
        },
        {
          "indexed": true,
          "internalType": "uint256",
          "name": "eventId",
          "type": "uint256"
        },
        {
          "indexed": false,
          "internalType": "string",
          "name": "ticketType",
          "type": "string"
        },
        {
          "indexed": false,
          "internalType": "uint256",
          "name": "quantity",
          "type": "uint256"
        }
      ],
      "name": "TicketPurchased",
      "type": "event"
    },
    {
      "anonymous": false,
      "inputs": [
        {
          "indexed": true,
          "internalType": "uint256",
          "name": "eventId",
          "type": "uint256"
        },
        {
          "indexed": false,
          "internalType": "string",
          "name": "ticketType",
          "type": "string"
        },
        {
          "indexed": false,
          "internalType": "uint256",
          "name": "price",
          "type": "uint256"
        },
        {
          "indexed": false,
          "internalType": "uint256",
          "name": "quantity",
          "type": "uint256"
        }
      ],
      "name": "TicketTypeAdded",
      "type": "event"
    },
    {
      "inputs": [
        {
          "internalType": "uint256",
          "name": "eventId",
          "type": "uint256"
        },
        {
          "internalType": "string",
          "name": "ticketType",
          "type": "string"
        },
        {
          "internalType": "uint256",
          "name": "price",
          "type": "uint256"
        },
        {
          "internalType": "uint256",
          "name": "quantity",
          "type": "uint256"
        }
      ],
      "name": "addTicketType",
      "outputs": [],
      "stateMutability": "nonpayable",
      "type": "function"
    },
    {
      "inputs": [
        {
          "internalType": "uint256",
          "name": "eventId",
          "type": "uint256"
        },
        {
          "internalType": "string",
          "name": "ticketType",
          "type": "string"
        },
        {
          "internalType": "uint256",
          "name": "quantity",
          "type": "uint256"
        }
      ],
      "name": "buyTicket",
      "outputs": [],
      "stateMutability": "payable",
      "type": "function"
    },
    {
      "inputs": [
        {
          "internalType": "uint256",
          "name": "eventId",
          "type": "uint256"
        }
      ],
      "name": "cancelEvent",
      "outputs": [],
      "stateMutability": "nonpayable",
      "type": "function"
    },
    {
      "inputs": [
        {
          "internalType": "uint256",
          "name": "eventId",
          "type": "uint256"
        },
        {
          "internalType": "string",
          "name": "ticketType",
          "type": "string"
        },
        {
          "internalType": "uint256",
          "name": "quantity",
          "type": "uint256"
        }
      ],
      "name": "cancelTicket",
      "outputs": [],
      "stateMutability": "nonpayable",
      "type": "function"
    },
    {
      "inputs": [
        {
          "internalType": "string",
          "name": "name",
          "type": "string"
        },
        {
          "internalType": "string",
          "name": "description",
          "type": "string"
        },
        {
          "internalType": "string",
          "name": "location",
          "type": "string"
        },
        {
          "internalType": "uint256",
          "name": "time",
          "type": "uint256"
        }
      ],
      "name": "createEvent",
      "outputs": [],
      "stateMutability": "nonpayable",
      "type": "function"
    },
    {
      "inputs": [
        {
          "internalType": "uint256",
          "name": "",
          "type": "uint256"
        }
      ],
      "name": "events",
      "outputs": [
        {
          "internalType": "uint256",
          "name": "eventId",
          "type": "uint256"
        },
        {
          "internalType": "string",
          "name": "name",
          "type": "string"
        },
        {
          "internalType": "string",
          "name": "description",
          "type": "string"
        },
        {
          "internalType": "string",
          "name": "location",
          "type": "string"
        },
        {
          "internalType": "uint256",
          "name": "time",
          "type": "uint256"
        },
        {
          "internalType": "bool",
          "name": "isCancelled",
          "type": "bool"
        },
        {
          "internalType": "address",
          "name": "organizer",
          "type": "address"
        }
      ],
      "stateMutability": "view",
      "type": "function"
    },
    {
      "inputs": [
        {
          "internalType": "uint256",
          "name": "eventId",
          "type": "uint256"
        }
      ],
      "name": "getEventTicketDetails",
      "outputs": [
        {
          "internalType": "string[]",
          "name": "",
          "type": "string[]"
        },
        {
          "internalType": "uint256[]",
          "name": "",
          "type": "uint256[]"
        },
        {
          "internalType": "uint256[]",
          "name": "",
          "type": "uint256[]"
        },
        {
          "internalType": "uint256[]",
          "name": "",
          "type": "uint256[]"
        }
      ],
      "stateMutability": "view",
      "type": "function"
    },
    {
      "inputs": [
        {
          "internalType": "address",
          "name": "organizer",
          "type": "address"
        }
      ],
      "name": "getOrganizerEvents",
      "outputs": [
        {
          "components": [
            {
              "internalType": "uint256",
              "name": "eventId",
              "type": "uint256"
            },
            {
              "internalType": "string",
              "name": "name",
              "type": "string"
            },
            {
              "internalType": "string",
              "name": "description",
              "type": "string"
            },
            {
              "internalType": "string",
              "name": "location",
              "type": "string"
            },
            {
              "internalType": "uint256",
              "name": "time",
              "type": "uint256"
            },
            {
              "internalType": "bool",
              "name": "isCancelled",
              "type": "bool"
            },
            {
              "internalType": "address",
              "name": "organizer",
              "type": "address"
            }
          ],
          "internalType": "struct EventManager.Event[]",
          "name": "",
          "type": "tuple[]"
        }
      ],
      "stateMutability": "view",
      "type": "function"
    },
    {
      "inputs": [
        {
          "internalType": "address",
          "name": "userAddress",
          "type": "address"
        }
      ],
      "name": "getUserTickets",
      "outputs": [
        {
          "components": [
            {
              "internalType": "uint256",
              "name": "eventId",
              "type": "uint256"
            },
            {
              "internalType": "string",
              "name": "ticketType",
              "type": "string"
            },
            {
              "internalType": "uint256",
              "name": "quantity",
              "type": "uint256"
            }
          ],
          "internalType": "struct EventManager.Ticket[]",
          "name": "",
          "type": "tuple[]"
        }
      ],
      "stateMutability": "view",
      "type": "function"
    },
    {
      "inputs": [
        {
          "internalType": "address",
          "name": "",
          "type": "address"
        },
        {
          "internalType": "uint256",
          "name": "",
          "type": "uint256"
        },
        {
          "internalType": "string",
          "name": "",
          "type": "string"
        }
      ],
      "name": "ticketOwnership",
      "outputs": [
        {
          "internalType": "uint256",
          "name": "",
          "type": "uint256"
        }
      ],
      "stateMutability": "view",
      "type": "function"
    },
    {
      "inputs": [
        {
          "internalType": "uint256",
          "name": "",
          "type": "uint256"
        },
        {
          "internalType": "string",
          "name": "",
          "type": "string"
        }
      ],
      "name": "ticketTypes",
      "outputs": [
        {
          "internalType": "uint256",
          "name": "price",
          "type": "uint256"
        },
        {
          "internalType": "uint256",
          "name": "totalQuantity",
          "type": "uint256"
        },
        {
          "internalType": "uint256",
          "name": "availableQuantity",
          "type": "uint256"
        }
      ],
      "stateMutability": "view",
      "type": "function"
    },
    {
      "inputs": [
        {
          "internalType": "address",
          "name": "",
          "type": "address"
        },
        {
          "internalType": "uint256",
          "name": "",
          "type": "uint256"
        }
      ],
      "name": "userTickets",
      "outputs": [
        {
          "internalType": "uint256",
          "name": "eventId",
          "type": "uint256"
        },
        {
          "internalType": "string",
          "name": "ticketType",
          "type": "string"
        },
        {
          "internalType": "uint256",
          "name": "quantity",
          "type": "uint256"
        }
      ],
      "stateMutability": "view",
      "type": "function"
    },
    {
      "inputs": [
        {
          "internalType": "uint256",
          "name": "eventId",
          "type": "uint256"
        }
      ],
      "name": "withdrawFunds",
      "outputs": [],
      "stateMutability": "nonpayable",
      "type": "function"
    }
  ],
  "transactionHash": "0x22ec9ff23b184c06605c0151d0f5fde8e876e24ebd46c4a5a075ed0d14a61fef",
  "args": [],
  "numDeployments": 2,
  "solcInputHash": "2aee222e8ad208237a0770632fdb3196",
  "bytecode": "0x608060405234801561001057600080fd5b5060016000556123fc806100256000396000f3fe6080604052600436106100c25760003560e01c80634653db161161007f578063cf260baf11610059578063cf260baf14610256578063de4cd84214610285578063e5257355146102a5578063ff9f59701461031657600080fd5b80634653db16146101b55780634eb746ad146101d55780638dfa59831461023657600080fd5b80630484a22f146100c75780630b791430146100fd578063124a51e914610130578063155dd5ee146101605780632e019e4b146101825780633f69babd14610195575b600080fd5b3480156100d357600080fd5b506100e76100e23660046119e2565b610343565b6040516100f49190611a54565b60405180910390f35b34801561010957600080fd5b5061011d610118366004611ad5565b61045e565b6040516100f49796959493929190611aee565b34801561013c57600080fd5b5061015061014b366004611ad5565b61063d565b6040516100f49493929190611b91565b34801561016c57600080fd5b5061018061017b366004611ad5565b610935565b005b610180610190366004611cd4565b610c16565b3480156101a157600080fd5b506101806101b0366004611ad5565b610e41565b3480156101c157600080fd5b506101806101d0366004611d24565b610f40565b3480156101e157600080fd5b506102286101f0366004611d7b565b600460209081526000938452604080852082529284529190922082518084018301805192815290830193909201929092209190525481565b6040519081526020016100f4565b34801561024257600080fd5b50610180610251366004611cd4565b611139565b34801561026257600080fd5b50610276610271366004611dd2565b6112bd565b6040516100f493929190611dfc565b34801561029157600080fd5b506101806102a0366004611e25565b61138c565b3480156102b157600080fd5b506102fb6102c0366004611eb5565b600260208181526000938452604090932082518084018501805192815290850193909401929092209190925280546001820154919092015483565b604080519384526020840192909252908201526060016100f4565b34801561032257600080fd5b506103366103313660046119e2565b61153b565b6040516100f49190611efc565b6001600160a01b0381166000908152600660209081526040808320805482518185028101850190935280835260609492939192909184015b828210156104535783829060005260206000209060030201604051806060016040529081600082015481526020016001820180546103b890611fc3565b80601f01602080910402602001604051908101604052809291908181526020018280546103e490611fc3565b80156104315780601f1061040657610100808354040283529160200191610431565b820191906000526020600020905b81548152906001019060200180831161041457829003601f168201915b505050505081526020016002820154815250508152602001906001019061037b565b505050509050919050565b60016020819052600091825260409091208054918101805461047f90611fc3565b80601f01602080910402602001604051908101604052809291908181526020018280546104ab90611fc3565b80156104f85780601f106104cd576101008083540402835291602001916104f8565b820191906000526020600020905b8154815290600101906020018083116104db57829003601f168201915b50505050509080600201805461050d90611fc3565b80601f016020809104026020016040519081016040528092919081815260200182805461053990611fc3565b80156105865780601f1061055b57610100808354040283529160200191610586565b820191906000526020600020905b81548152906001019060200180831161056957829003601f168201915b50505050509080600301805461059b90611fc3565b80601f01602080910402602001604051908101604052809291908181526020018280546105c790611fc3565b80156106145780601f106105e957610100808354040283529160200191610614565b820191906000526020600020905b8154815290600101906020018083116105f757829003601f168201915b50505050600483015460059093015491929160ff8116915061010090046001600160a01b031687565b60608060608084600060016000838152602001908152602001600020600101805461066790611fc3565b90501161068f5760405162461bcd60e51b815260040161068690611ffd565b60405180910390fd5b600086815260056020908152604080832080548251818502810185019093528083529192909190849084015b828210156107675783829060005260206000200180546106da90611fc3565b80601f016020809104026020016040519081016040528092919081815260200182805461070690611fc3565b80156107535780601f1061072857610100808354040283529160200191610753565b820191906000526020600020905b81548152906001019060200180831161073657829003601f168201915b5050505050815260200190600101906106bb565b50505050905060008151905060008167ffffffffffffffff81111561078e5761078e611c31565b6040519080825280602002602001820160405280156107b7578160200160208202803683370190505b50905060008267ffffffffffffffff8111156107d5576107d5611c31565b6040519080825280602002602001820160405280156107fe578160200160208202803683370190505b50905060008367ffffffffffffffff81111561081c5761081c611c31565b604051908082528060200260200182016040528015610845578160200160208202803683370190505b50905060005b8481101561092257600086828151811061086757610867612034565b602002602001015190506000600260008f815260200190815260200160002082604051610894919061204a565b9081526020016040518091039020905080600001548684815181106108bb576108bb612034565b60200260200101818152505080600101548584815181106108de576108de612034565b602002602001018181525050806002015484848151811061090157610901612034565b6020026020010181815250505050808061091a9061207c565b91505061084b565b50939a9199509750919550909350505050565b600081815260016020526040902060050154819061010090046001600160a01b031633146109755760405162461bcd60e51b815260040161068690612095565b60008281526001602052604090206004015442116109d55760405162461bcd60e51b815260206004820152601c60248201527f546865206576656e7420686173206e6f7420656e646564207965742e000000006044820152606401610686565b60008281526001602052604090206005015460ff1615610a075760405162461bcd60e51b8152600401610686906120dd565b600082815260056020908152604080832080548251818502810185019093528083528493849084015b82821015610adc578382906000526020600020018054610a4f90611fc3565b80601f0160208091040260200160405190810160405280929190818152602001828054610a7b90611fc3565b8015610ac85780601f10610a9d57610100808354040283529160200191610ac8565b820191906000526020600020905b815481529060010190602001808311610aab57829003601f168201915b505050505081526020019060010190610a30565b50505050905060005b8151811015610b86576000828281518110610b0257610b02612034565b6020026020010151905060006002600088815260200190815260200160002082604051610b2f919061204a565b90815260200160405180910390209050600081600201548260010154610b559190612114565b8254909150610b64908261212d565b610b6e9087612144565b95505050508080610b7e9061207c565b915050610ae5565b5060008211610be25760405162461bcd60e51b815260206004820152602260248201527f4e6f2066756e647320617661696c61626c6520666f7220776974686472617761604482015261361760f11b6064820152608401610686565b604051339083156108fc029084906000818181858888f19350505050158015610c0f573d6000803e3d6000fd5b5050505050565b600083815260016020526040902060050154839060ff1615610c4a5760405162461bcd60e51b8152600401610686906120dd565b6000848152600160208190526040822001805486929190610c6a90611fc3565b905011610c895760405162461bcd60e51b815260040161068690611ffd565b610c916118ad565b6000858152600260205260408082209051610cad90879061204a565b90815260200160405180910390209050600084118015610cd1575080600201548411155b610d1d5760405162461bcd60e51b815260206004820152601d60248201527f4e6f7420656e6f756768207469636b65747320617661696c61626c652e0000006044820152606401610686565b8054610d2a90859061212d565b3414610d785760405162461bcd60e51b815260206004820152601f60248201527f496e636f727265637420616d6f756e74206f662065746865722073656e742e006044820152606401610686565b83816002016000828254610d8c9190612114565b909155505033600090815260066020908152604080832081516060810183528a81528084018a8152928101899052815460018181018455928652939094208451600390940201928355905190820190610de590826121a5565b5060408201518160020155505085336001600160a01b03167f10975240183144ceba20e3ae815c79a9732411a60efbf4dac13c2522d527e2be8787604051610e2e929190612265565b60405180910390a350610c0f6001600055565b600081815260016020526040902060050154819061010090046001600160a01b03163314610e815760405162461bcd60e51b815260040161068690612095565b600082815260016020526040902060050154829060ff1615610eb55760405162461bcd60e51b8152600401610686906120dd565b6000838152600160208190526040822001805485929190610ed590611fc3565b905011610ef45760405162461bcd60e51b815260040161068690611ffd565b6000848152600160208190526040808320600501805460ff19169092179091555185917fdc3cb569b066460f4a22dffa05317bdcce5d3826382ed49a21f13e5fa2063d3991a250505050565b600084815260016020526040902060050154849061010090046001600160a01b03163314610f805760405162461bcd60e51b815260040161068690612095565b6000858152600160208190526040822001805487929190610fa090611fc3565b905011610fbf5760405162461bcd60e51b815260040161068690611ffd565b6000841161100f5760405162461bcd60e51b815260206004820181905260248201527f5072696365206d7573742062652067726561746572207468616e207a65726f2e6044820152606401610686565b6000831161106b5760405162461bcd60e51b815260206004820152602360248201527f5175616e74697479206d7573742062652067726561746572207468616e207a6560448201526239379760e91b6064820152608401610686565b60405180606001604052808581526020018481526020018481525060026000888152602001908152602001600020866040516110a7919061204a565b908152604080516020928190038301902083518155838301516001808301919091559382015160029091015560008981526005835290812080549384018155815220016110f486826121a5565b50857f2b08bfd52686de630a681d7f6ac34680e4a9c65a6777b964543a51b79c80e79586868660405161112993929190612287565b60405180910390a2505050505050565b6111416118ad565b60008061114e8585611906565b915091508061116f5760405162461bcd60e51b8152600401610686906122ac565b33600090815260066020526040812080548490811061119057611190612034565b9060005260206000209060030201905083816002015410156111c45760405162461bcd60e51b8152600401610686906122ac565b60008681526002602052604080822090516111e090889061204a565b90815260200160405180910390209050848260020160008282546112049190612114565b925050819055508481600201600082825461121f9190612144565b9091555050805460009061123490879061212d565b604051909150339082156108fc029083906000818181858888f19350505050158015611264573d6000803e3d6000fd5b5087336001600160a01b03167feff335da5ec625f144ec4789cbf4d820573972a838bfb9289a304701b934d2cc89896040516112a1929190612265565b60405180910390a350505050506112b86001600055565b505050565b600660205281600052604060002081815481106112d957600080fd5b90600052602060002090600302016000915091505080600001549080600101805461130390611fc3565b80601f016020809104026020016040519081016040528092919081815260200182805461132f90611fc3565b801561137c5780601f106113515761010080835404028352916020019161137c565b820191906000526020600020905b81548152906001019060200180831161135f57829003601f168201915b5050505050908060020154905083565b4281116113e55760405162461bcd60e51b815260206004820152602160248201527f4576656e742074696d65206d75737420626520696e20746865206675747572656044820152601760f91b6064820152608401610686565b60078054600091826113f68361207c565b909155506040805160e08101825282815260208082018981528284018990526060830188905260808301879052600060a084018190523360c08501528581526001928390529390932082518155925193945090929082019061145890826121a5565b506040820151600282019061146d90826121a5565b506060820151600382019061148290826121a5565b506080820151600482015560a08201516005909101805460c0909301516001600160a01b031661010002610100600160a81b0319921515929092166001600160a81b031990931692909217179055336000818152600360209081526040808320805460018101825590845291909220018390555182917f3db395b2bb3fe50edee153dd9be8273e84ad0a99543452b6cfc5dfd36f46e7629161152c918991899189918991906122f4565b60405180910390a25050505050565b6001600160a01b038116600090815260036020908152604080832080548251818502810185019093528083526060949383018282801561159a57602002820191906000526020600020905b815481526020019060010190808311611586575b505050505090506000815167ffffffffffffffff8111156115bd576115bd611c31565b60405190808252806020026020018201604052801561163957816020015b6116266040518060e00160405280600081526020016060815260200160608152602001606081526020016000815260200160001515815260200160006001600160a01b031681525090565b8152602001906001900390816115db5790505b50905060005b82518110156118a557600083828151811061165c5761165c612034565b60200260200101519050600160008281526020019081526020016000206040518060e00160405290816000820154815260200160018201805461169e90611fc3565b80601f01602080910402602001604051908101604052809291908181526020018280546116ca90611fc3565b80156117175780601f106116ec57610100808354040283529160200191611717565b820191906000526020600020905b8154815290600101906020018083116116fa57829003601f168201915b5050505050815260200160028201805461173090611fc3565b80601f016020809104026020016040519081016040528092919081815260200182805461175c90611fc3565b80156117a95780601f1061177e576101008083540402835291602001916117a9565b820191906000526020600020905b81548152906001019060200180831161178c57829003601f168201915b505050505081526020016003820180546117c290611fc3565b80601f01602080910402602001604051908101604052809291908181526020018280546117ee90611fc3565b801561183b5780601f106118105761010080835404028352916020019161183b565b820191906000526020600020905b81548152906001019060200180831161181e57829003601f168201915b50505091835250506004820154602082015260059091015460ff81161515604083015261010090046001600160a01b0316606090910152835184908490811061188657611886612034565b602002602001018190525050808061189d9061207c565b91505061163f565b509392505050565b6002600054036118ff5760405162461bcd60e51b815260206004820152601f60248201527f5265656e7472616e637947756172643a207265656e7472616e742063616c6c006044820152606401610686565b6002600055565b3360009081526006602052604081208190815b81548110156119b5578582828154811061193557611935612034565b9060005260206000209060030201600001541480156119915750848051906020012082828154811061196957611969612034565b90600052602060002090600302016001016040516119879190612350565b6040518091039020145b156119a3579250600191506119bf9050565b806119ad8161207c565b915050611919565b5060008092509250505b9250929050565b80356001600160a01b03811681146119dd57600080fd5b919050565b6000602082840312156119f457600080fd5b6119fd826119c6565b9392505050565b60005b83811015611a1f578181015183820152602001611a07565b50506000910152565b60008151808452611a40816020860160208601611a04565b601f01601f19169290920160200192915050565b60006020808301818452808551808352604092508286019150828160051b87010184880160005b83811015611ac757603f19898403018552815160608151855288820151818a870152611aa982870182611a28565b92890151958901959095525094870194925090860190600101611a7b565b509098975050505050505050565b600060208284031215611ae757600080fd5b5035919050565b87815260e060208201526000611b0760e0830189611a28565b8281036040840152611b198189611a28565b90508281036060840152611b2d8188611a28565b6080840196909652505091151560a08301526001600160a01b031660c090910152949350505050565b600081518084526020808501945080840160005b83811015611b8657815187529582019590820190600101611b6a565b509495945050505050565b6000608082016080835280875180835260a08501915060a08160051b86010192506020808a0160005b83811015611be857609f19888703018552611bd6868351611a28565b95509382019390820190600101611bba565b505085840381870152505050611bfe8187611b56565b90508281036040840152611c128186611b56565b90508281036060840152611c268185611b56565b979650505050505050565b634e487b7160e01b600052604160045260246000fd5b600082601f830112611c5857600080fd5b813567ffffffffffffffff80821115611c7357611c73611c31565b604051601f8301601f19908116603f01168101908282118183101715611c9b57611c9b611c31565b81604052838152866020858801011115611cb457600080fd5b836020870160208301376000602085830101528094505050505092915050565b600080600060608486031215611ce957600080fd5b83359250602084013567ffffffffffffffff811115611d0757600080fd5b611d1386828701611c47565b925050604084013590509250925092565b60008060008060808587031215611d3a57600080fd5b84359350602085013567ffffffffffffffff811115611d5857600080fd5b611d6487828801611c47565b949794965050505060408301359260600135919050565b600080600060608486031215611d9057600080fd5b611d99846119c6565b925060208401359150604084013567ffffffffffffffff811115611dbc57600080fd5b611dc886828701611c47565b9150509250925092565b60008060408385031215611de557600080fd5b611dee836119c6565b946020939093013593505050565b838152606060208201526000611e156060830185611a28565b9050826040830152949350505050565b60008060008060808587031215611e3b57600080fd5b843567ffffffffffffffff80821115611e5357600080fd5b611e5f88838901611c47565b95506020870135915080821115611e7557600080fd5b611e8188838901611c47565b94506040870135915080821115611e9757600080fd5b50611ea487828801611c47565b949793965093946060013593505050565b60008060408385031215611ec857600080fd5b82359150602083013567ffffffffffffffff811115611ee657600080fd5b611ef285828601611c47565b9150509250929050565b60006020808301818452808551808352604092508286019150828160051b87010184880160005b83811015611ac757603f19898403018552815160e08151855288820151818a870152611f5182870182611a28565b9150508782015185820389870152611f698282611a28565b91505060608083015186830382880152611f838382611a28565b6080858101519089015260a08086015115159089015260c0948501516001600160a01b031694909701939093525050509386019390860190600101611f23565b600181811c90821680611fd757607f821691505b602082108103611ff757634e487b7160e01b600052602260045260246000fd5b50919050565b60208082526019908201527f546865206576656e7420646f6573206e6f742065786973742e00000000000000604082015260600190565b634e487b7160e01b600052603260045260246000fd5b6000825161205c818460208701611a04565b9190910192915050565b634e487b7160e01b600052601160045260246000fd5b60006001820161208e5761208e612066565b5060010190565b60208082526028908201527f596f7520617265206e6f7420746865206f7267616e697a6572206f6620746869604082015267399032bb32b73a1760c11b606082015260800190565b60208082526017908201527f546865206576656e742069732063616e63656c6c65642e000000000000000000604082015260600190565b8181038181111561212757612127612066565b92915050565b808202811582820484141761212757612127612066565b8082018082111561212757612127612066565b601f8211156112b857600081815260208120601f850160051c8101602086101561217e5750805b601f850160051c820191505b8181101561219d5782815560010161218a565b505050505050565b815167ffffffffffffffff8111156121bf576121bf611c31565b6121d3816121cd8454611fc3565b84612157565b602080601f83116001811461220857600084156121f05750858301515b600019600386901b1c1916600185901b17855561219d565b600085815260208120601f198616915b8281101561223757888601518255948401946001909101908401612218565b50858210156122555787850151600019600388901b60f8161c191681555b5050505050600190811b01905550565b6040815260006122786040830185611a28565b90508260208301529392505050565b60608152600061229a6060830186611a28565b60208301949094525060400152919050565b60208082526028908201527f596f7520646f206e6f74206f776e20656e6f756768207469636b65747320746f6040820152671031b0b731b2b61760c11b606082015260800190565b60a08152600061230760a0830188611a28565b82810360208401526123198188611a28565b9050828103604084015261232d8187611a28565b606084019590955250506001600160a01b03919091166080909101529392505050565b600080835461235e81611fc3565b60018281168015612376576001811461238b576123ba565b60ff19841687528215158302870194506123ba565b8760005260208060002060005b858110156123b15781548a820152908401908201612398565b50505082870194505b5092969550505050505056fea2646970667358221220f324fcbe5062ebd6562ae591ae0a37b17c4725e68e367ce84e45044165bd8d0a64736f6c63430008110033",
  "devdoc": {
    "author": "Kaviraj",
    "kind": "dev",
    "methods": {},
    "version": 1
  },
  "userdoc": {
    "kind": "user",
    "methods": {},
    "notice": "This contract is an event managing contract",
    "version": 1
  },
  "storageLayout": {
    "storage": [
      {
        "astId": 10,
        "contract": "contracts/EventManager.sol:EventManager",
        "label": "_status",
        "offset": 0,
        "slot": "0",
        "type": "t_uint256"
      },
      {
        "astId": 104,
        "contract": "contracts/EventManager.sol:EventManager",
        "label": "events",
        "offset": 0,
        "slot": "1",
        "type": "t_mapping(t_uint256,t_struct(Event)99_storage)"
      },
      {
        "astId": 111,
        "contract": "contracts/EventManager.sol:EventManager",
        "label": "ticketTypes",
        "offset": 0,
        "slot": "2",
        "type": "t_mapping(t_uint256,t_mapping(t_string_memory_ptr,t_struct(TicketType)77_storage))"
      },
      {
        "astId": 116,
        "contract": "contracts/EventManager.sol:EventManager",
        "label": "organizerEvents",
        "offset": 0,
        "slot": "3",
        "type": "t_mapping(t_address,t_array(t_uint256)dyn_storage)"
      },
      {
        "astId": 124,
        "contract": "contracts/EventManager.sol:EventManager",
        "label": "ticketOwnership",
        "offset": 0,
        "slot": "4",
        "type": "t_mapping(t_address,t_mapping(t_uint256,t_mapping(t_string_memory_ptr,t_uint256)))"
      },
      {
        "astId": 129,
        "contract": "contracts/EventManager.sol:EventManager",
        "label": "eventTicketTypes",
        "offset": 0,
        "slot": "5",
        "type": "t_mapping(t_uint256,t_array(t_string_storage)dyn_storage)"
      },
      {
        "astId": 135,
        "contract": "contracts/EventManager.sol:EventManager",
        "label": "userTickets",
        "offset": 0,
        "slot": "6",
        "type": "t_mapping(t_address,t_array(t_struct(Ticket)84_storage)dyn_storage)"
      },
      {
        "astId": 137,
        "contract": "contracts/EventManager.sol:EventManager",
        "label": "nextEventId",
        "offset": 0,
        "slot": "7",
        "type": "t_uint256"
      }
    ],
    "types": {
      "t_address": {
        "encoding": "inplace",
        "label": "address",
        "numberOfBytes": "20"
      },
      "t_array(t_string_storage)dyn_storage": {
        "base": "t_string_storage",
        "encoding": "dynamic_array",
        "label": "string[]",
        "numberOfBytes": "32"
      },
      "t_array(t_struct(Ticket)84_storage)dyn_storage": {
        "base": "t_struct(Ticket)84_storage",
        "encoding": "dynamic_array",
        "label": "struct EventManager.Ticket[]",
        "numberOfBytes": "32"
      },
      "t_array(t_uint256)dyn_storage": {
        "base": "t_uint256",
        "encoding": "dynamic_array",
        "label": "uint256[]",
        "numberOfBytes": "32"
      },
      "t_bool": {
        "encoding": "inplace",
        "label": "bool",
        "numberOfBytes": "1"
      },
      "t_mapping(t_address,t_array(t_struct(Ticket)84_storage)dyn_storage)": {
        "encoding": "mapping",
        "key": "t_address",
        "label": "mapping(address => struct EventManager.Ticket[])",
        "numberOfBytes": "32",
        "value": "t_array(t_struct(Ticket)84_storage)dyn_storage"
      },
      "t_mapping(t_address,t_array(t_uint256)dyn_storage)": {
        "encoding": "mapping",
        "key": "t_address",
        "label": "mapping(address => uint256[])",
        "numberOfBytes": "32",
        "value": "t_array(t_uint256)dyn_storage"
      },
      "t_mapping(t_address,t_mapping(t_uint256,t_mapping(t_string_memory_ptr,t_uint256)))": {
        "encoding": "mapping",
        "key": "t_address",
        "label": "mapping(address => mapping(uint256 => mapping(string => uint256)))",
        "numberOfBytes": "32",
        "value": "t_mapping(t_uint256,t_mapping(t_string_memory_ptr,t_uint256))"
      },
      "t_mapping(t_string_memory_ptr,t_struct(TicketType)77_storage)": {
        "encoding": "mapping",
        "key": "t_string_memory_ptr",
        "label": "mapping(string => struct EventManager.TicketType)",
        "numberOfBytes": "32",
        "value": "t_struct(TicketType)77_storage"
      },
      "t_mapping(t_string_memory_ptr,t_uint256)": {
        "encoding": "mapping",
        "key": "t_string_memory_ptr",
        "label": "mapping(string => uint256)",
        "numberOfBytes": "32",
        "value": "t_uint256"
      },
      "t_mapping(t_uint256,t_array(t_string_storage)dyn_storage)": {
        "encoding": "mapping",
        "key": "t_uint256",
        "label": "mapping(uint256 => string[])",
        "numberOfBytes": "32",
        "value": "t_array(t_string_storage)dyn_storage"
      },
      "t_mapping(t_uint256,t_mapping(t_string_memory_ptr,t_struct(TicketType)77_storage))": {
        "encoding": "mapping",
        "key": "t_uint256",
        "label": "mapping(uint256 => mapping(string => struct EventManager.TicketType))",
        "numberOfBytes": "32",
        "value": "t_mapping(t_string_memory_ptr,t_struct(TicketType)77_storage)"
      },
      "t_mapping(t_uint256,t_mapping(t_string_memory_ptr,t_uint256))": {
        "encoding": "mapping",
        "key": "t_uint256",
        "label": "mapping(uint256 => mapping(string => uint256))",
        "numberOfBytes": "32",
        "value": "t_mapping(t_string_memory_ptr,t_uint256)"
      },
      "t_mapping(t_uint256,t_struct(Event)99_storage)": {
        "encoding": "mapping",
        "key": "t_uint256",
        "label": "mapping(uint256 => struct EventManager.Event)",
        "numberOfBytes": "32",
        "value": "t_struct(Event)99_storage"
      },
      "t_string_memory_ptr": {
        "encoding": "bytes",
        "label": "string",
        "numberOfBytes": "32"
      },
      "t_string_storage": {
        "encoding": "bytes",
        "label": "string",
        "numberOfBytes": "32"
      },
      "t_struct(Event)99_storage": {
        "encoding": "inplace",
        "label": "struct EventManager.Event",
        "members": [
          {
            "astId": 86,
            "contract": "contracts/EventManager.sol:EventManager",
            "label": "eventId",
            "offset": 0,
            "slot": "0",
            "type": "t_uint256"
          },
          {
            "astId": 88,
            "contract": "contracts/EventManager.sol:EventManager",
            "label": "name",
            "offset": 0,
            "slot": "1",
            "type": "t_string_storage"
          },
          {
            "astId": 90,
            "contract": "contracts/EventManager.sol:EventManager",
            "label": "description",
            "offset": 0,
            "slot": "2",
            "type": "t_string_storage"
          },
          {
            "astId": 92,
            "contract": "contracts/EventManager.sol:EventManager",
            "label": "location",
            "offset": 0,
            "slot": "3",
            "type": "t_string_storage"
          },
          {
            "astId": 94,
            "contract": "contracts/EventManager.sol:EventManager",
            "label": "time",
            "offset": 0,
            "slot": "4",
            "type": "t_uint256"
          },
          {
            "astId": 96,
            "contract": "contracts/EventManager.sol:EventManager",
            "label": "isCancelled",
            "offset": 0,
            "slot": "5",
            "type": "t_bool"
          },
          {
            "astId": 98,
            "contract": "contracts/EventManager.sol:EventManager",
            "label": "organizer",
            "offset": 1,
            "slot": "5",
            "type": "t_address"
          }
        ],
        "numberOfBytes": "192"
      },
      "t_struct(Ticket)84_storage": {
        "encoding": "inplace",
        "label": "struct EventManager.Ticket",
        "members": [
          {
            "astId": 79,
            "contract": "contracts/EventManager.sol:EventManager",
            "label": "eventId",
            "offset": 0,
            "slot": "0",
            "type": "t_uint256"
          },
          {
            "astId": 81,
            "contract": "contracts/EventManager.sol:EventManager",
            "label": "ticketType",
            "offset": 0,
            "slot": "1",
            "type": "t_string_storage"
          },
          {
            "astId": 83,
            "contract": "contracts/EventManager.sol:EventManager",
            "label": "quantity",
            "offset": 0,
            "slot": "2",
            "type": "t_uint256"
          }
        ],
        "numberOfBytes": "96"
      },
      "t_struct(TicketType)77_storage": {
        "encoding": "inplace",
        "label": "struct EventManager.TicketType",
        "members": [
          {
            "astId": 72,
            "contract": "contracts/EventManager.sol:EventManager",
            "label": "price",
            "offset": 0,
            "slot": "0",
            "type": "t_uint256"
          },
          {
            "astId": 74,
            "contract": "contracts/EventManager.sol:EventManager",
            "label": "totalQuantity",
            "offset": 0,
            "slot": "1",
            "type": "t_uint256"
          },
          {
            "astId": 76,
            "contract": "contracts/EventManager.sol:EventManager",
            "label": "availableQuantity",
            "offset": 0,
            "slot": "2",
            "type": "t_uint256"
          }
        ],
        "numberOfBytes": "96"
      },
      "t_uint256": {
        "encoding": "inplace",
        "label": "uint256",
        "numberOfBytes": "32"
      }
    }
  }
}